:10000000B1EF0AF0F76A140FF66E000EF72209003E
:10001000F55012003F0006005B004F0066006D00C7
:100020007D0007007F006F008E0E006E45C001F05E
:1000300044C002F0036A015209E102C001F0026A01
:10004000080E005E015202E1006A08D0D89001BE9D
:1000500004D0023601360006F9D7019E120039504D
:10006000D8B4A5D0456E3D50D8B4A1D0455E05E3C7
:100070007F0E4526D8B09BD006D0810E455ED8A015
:1000800096D0D8B494D045C000F0016A026A036AE1
:10009000446A3AC043F0438E3BC042F03CC041F05A
:1000A000190E456E4050415E0DE2010E425E0AE2BD
:1000B000435E08E2445E06E2442A432A422A405054
:1000C000412628D03F50425E12E2010E435E0FE20D
:1000D000445E0DE2442A432A3F50422640504126C6
:1000E00019E3422A17E1432A15E1442A13D03E506E
:1000F0008009435E0EE2010E445E0BE2442A3E504C
:10010000800943263F504226E9E3432AE7E1442A97
:10011000E5D70380452E01D00BD0D890413642362A
:1001200043364436D8900336023601364636BAD7BF
:1001300046A006D0D890013202320332463202D0B5
:10014000000635E046BE1ED0D890413642364336D2
:1001500044364050415E07E2010E425E04E2435ED7
:1001600002E2445E1AE33F50425E05E2010E435E46
:1001700002E2445E12E33E508009435E03E2010E58
:10018000445E0BE3032A09E1022A07E1012A05E1A3
:10019000002A0DE00132023203323AC045F03E50EF
:1001A000451A45AE02D0018E06D0019E04D0006AE9
:1001B000016A026A036A120041C048F04550481AB9
:1001C00048AE05D0D894D89041BED8802FD041C039
:1001D00048F044C049F04050495E06E048AE26D0A1
:1001E000D850010AD86E22D045C049F04150495E2E
:1001F00006E048AE1BD0D850010AD86E17D046C0D2
:1002000049F04250495E06E048AE10D0D850010A8D
:10021000D86E0CD047C049F04350495E06E048AE66
:1002200005D0D850010AD86E01D0D89012008E0E99
:10023000006E4050005E41C002F042C001F0028EEC
:10024000005209E0D890025202E1015204E0023269
:100250000132002EF7D741AE05D0011E021E012A41
:10026000D8B4022A12004050D8B471D0006E445065
:10027000D8B46DD0002604E3810E002668E204D0D5
:100280007F0E005E64E363E041C048F04550481AC9
:10029000418E458E43504702F4CF4AF04250460209
:1002A000F4CF03F0F3CF49F04702F3504A26F4505D
:1002B0004922000E032243504602F3504A26F450CE
:1002C0004922000E026A0322022241504702F350E3
:1002D0004926F4500322000E022241504602F350F8
:1002E0000326F4500222000E016A01224350450207
:1002F000F3504926F4500322000E022201224250FC
:100300004502F3500326F4500222000E0122415010
:100310004502F3500226F4500122002A01BE05D006
:1003200049360336023601360006000E49AE0AD0C1
:10033000032A02220122015005E1025003E1035089
:1003400001E1002A48BE018E48AE019E04D0006A39
:10035000016A026A036A1200800ED8B2491A4E6A14
:100360004F6A45C04DF049504D1A4450D8B4DCD0C6
:100370004C6E006E4850D8B4E0D04C5ED8B481D0FA
:100380003DE349C052F0528E4AC051F04BC050F08C
:100390004F6AD8905232513250324F324C2EF8D7E9
:1003A0004DAE03D04E80DDD04E904C904E88EA6A20
:1003B000470EE96EE9D04E984DBE0AD04CA013D03E
:1003C0005232513250324F32002AD8B4C5D00BD0FD
:1003D00052BE0CD0D8904F365036513652360006A9
:1003E000D8B4BAD0F5D74E8C6BD04E9C45C04DF0EA
:1003F00045AE02D0528EA9D0529EA7D048C04CF034
:1004000048C000F044504C5E45C052F0528E46C089
:1004100051F047C050F04F6AD890523251325032AA
:100420004F324C2EF8D74DAE03D04E829AD04E921A
:100430004C904E8AEA6A4B0EE96EA6D04E9A4DBE9B
:100440000AD04CA013D05232513250324F32002ACF
:10045000D8B482D00BD052BE0CD0D8904F36503684
:10046000513652360006D8B477D0F5D74E8E28D004
:100470004E9E49C04DF049AE02D0528E66D0529E7B
:1004800064D049C052F0528E4AC051F04BC050F077
:100490004DAE04D0529E4E8464D04E944F6A4C9020
:1004A000EA6A470EE96E70D04DBE1CD045C04DF0D3
:1004B0004CA006D05232513250324F32002A4CE01A
:1004C0004FAE0BD0502A09E1512A07E1522A05E12B
:1004D000523251325032002A3FE04EBC86D74EBED7
:1004E000C7D71CD0800E521A52AE04D03AD049C0A1
:1004F0004DF00AD045C04DF0525206E1515204E190
:10050000505202E1006A21D052BE08D0D8904F3636
:10051000503651365236002EF7D71ED04DAE02D08F
:10052000528E13D0529E11D048C000F049C052F0F4
:100530004AC051F04BC050F008D044C000F045C054
:1005400052F046C051F047C050F052C001F051C0C7
:1005500002F050C003F034D0006A016A026A036AF4
:100560002FD04F6A501E511E521E4F1E4F2A05E1BA
:10057000502A03E1512A01E1522A4EB015D74EB25A
:1005800056D74EB48AD7B3D7EF50502605E3512A39
:1005900003E1522AD8B44C80ED52EF50512603E3C8
:1005A000522AD8B44C80ED52EF50EFBE01D0800AF1
:1005B0005226D8B04C804EB8FED64EBA3FD774D72C
:1005C00012003F9033C038F032C037F031C036F0FF
:1005D00030C035F033C043F032C042F031C041F09A
:1005E00030C040F0476A466A456A446AE5DD04E384
:1005F0003F803650800A366E38C043F037C042F034
:1006000036C041F035C040F0476A466A456A8E0EF2
:10061000446ED2DD01E217E138C043F037C042F04A
:1006200036C041F035C040F002DE02C045F001C0E6
:1006300044F0FADC03C03CF002C03BF001C03AF0E9
:1006400000C039F0BDD038C043F037C042F036C0EA
:1006500041F035C040F0800E476E960E466E180E83
:10066000456E960E446EA8DDD8A0A2D038C043F0E7
:1006700037C042F036C041F035C040F0476A466AA4
:10068000456A700E446EEFDD03C043F002C042F0D5
:1006900001C041F000C040F0CADD02C03EF001C020
:1006A0003DF038C043F037C042F036C041F035C0AD
:1006B00040F0476A466A456A700E446ED4DD03C056
:1006C00043F002C042F001C041F000C040F03EC023
:1006D00045F03DC044F0A8DCD88243C047F042C09A
:1006E00046F041C045F040C044F003C04BF002C0AA
:1006F0004AF001C049F000C048F02EDE436A426A69
:10070000416A8E0E406E03C047F002C046F001C041
:1007100045F000C044F0A7DD03C038F002C037F058
:1007200001C036F000C035F03EC045F03DC044F099
:100730007BDC436A426A416A8E0E406E03C047F01A
:1007400002C046F001C045F000C044F08CDD03C09B
:100750003CF002C03BF001C03AF000C039F038C0B4
:1007600043F037C042F036C041F035C040F05FDDA5
:1007700002C045F001C044F057DCD8923CC047F0BD
:100780003BC046F03AC045F039C044F003C04BF0DE
:1007900002C04AF001C049F000C048F0DDDD03C0EE
:1007A0003CF002C03BF001C03AF000C039F008D084
:1007B00038C03CF037C03BF036C03AF035C039F0B5
:1007C00038C043F037C042F036C041F035C040F089
:1007D0002EDD02C045F001C044F026DCD88238C0CE
:1007E00047F037C046F036C045F035C044F003C08E
:1007F0004BF002C04AF001C049F000C048F0ACDD47
:1008000003C038F002C037F001C036F000C035F048
:100810003FA003D03A50800A3A6E38C043F037C048
:1008200042F036C041F035C040F0476A466A456A3A
:10083000446AC2DC36E03FA019D0345217E1D882B6
:100840003CC047F03BC046F03AC045F039C044F0E8
:100850004B6A4A6A496A7F0E486E7EDD03C03CF0EF
:1008600002C03BF001C03AF000C039F03FB019D0EF
:10087000342C17D0D8923CC047F03BC046F03AC069
:1008800045F039C044F04B6A4A6A496A7F0E486EA7
:1008900063DD03C03CF002C03BF001C03AF000C091
:1008A00039F033C043F032C042F031C041F030C0C3
:1008B00040F0476A466A456A446A7EDC04E13C6A65
:1008C0003B6A3A6A396A39C000F03AC001F03BC06D
:1008D00002F03CC003F012002FC033F02EC032F003
:1008E0002DC031F02CC030F0010E346E6ADEDFEF27
:1008F00004F02FC033F02EC032F02DC031F02CC0E8
:1009000030F0346A5EDE03EF05F023C043F022C00E
:1009100042F021C041F020C040F0476A466A456A73
:10092000446A4ADCD8B49BD01FC03CF01EC03BF0E8
:100930001DC03AF01CC039F023C040F022C03FF087
:1009400021C03EF020C03DF02FEC00F003C02BF0A2
:1009500002C02AF001C029F000C028F003C043F013
:1009600002C042F001C041F000C040F0476A466A50
:10097000456A446A21DC24E31FC03CF01EC03BF002
:100980001DC03AF01CC039F023C040F022C03FF037
:1009900021C03EF020C03DF02FEC00F003C02BF052
:1009A00002C02AF001C029F000C028F003C02FF0D7
:1009B00002C02EF001C02DF000C02CF08DD723D046
:1009C0001FC03CF01EC03BF01DC03AF01CC039F007
:1009D00023C040F022C03FF021C03EF020C03DF0D7
:1009E0002FEC00F003C02BF002C02AF001C029F068
:1009F00000C028F003C02FF002C02EF001C02DF07F
:100A000000C02CF076D703C027F002C026F001C04A
:100A100025F000C024F027C043F026C042F025C0D6
:100A200041F024C040F023C047F022C046F021C06E
:100A300045F020C044F017DCD8821FC047F01EC02C
:100A400046F01DC045F01CC044F003C04BF002C08E
:100A50004AF001C049F000C048F07EDC00D012002E
:100A60008E0E006E37C001F036C002F0036A37AE5A
:100A700005D0011E021E022A01E1012A015209E1EC
:100A800002C001F0026A080E005E015202E1006A33
:100A90000AD0D89001BE04D0023601360006F9D73C
:100AA00037BE01D0019E120023C027F022C026F0DD
:100AB00021C025F020C024F027C043F026C042F01A
:100AC00025C041F024C040F0476A466A456A7F0E5F
:100AD000446EDCEC00F0D8B486D1366A240EE96EA0
:100AE00036C0EAFF7E0EEF6ED88227C047F026C0E0
:100AF00046F025C045F024C044F04B6A4A6A496A72
:100B00007F0E486E29DC03C038F002C037F001C008
:100B100036F000C035F0D89227C047F026C046F026
:100B200025C045F024C044F04B6A4A6A496A7F0EEA
:100B3000486E12DC38C03CF037C03BF036C03AF0AB
:100B400035C039F003C040F002C03FF001C03EF0B4
:100B500000C03DF02FEC00F003C027F002C026F0EB
:100B600001C025F000C024F027C043F026C042F0A9
:100B700025C041F024C040F027C047F026C046F011
:100B800025C045F024C044F033EC01F003C033F03D
:100B900002C032F001C031F000C030F0990E436E57
:100BA000470E426E8A0E416E7F0E406E33C047F094
:100BB00032C046F031C045F030C044F033EC01F0B3
:100BC00003C038F002C037F001C036F000C035F085
:100BD000D89203C047F002C046F001C045F000C003
:100BE00044F04B6A4A6A496A800E486EACEC01F0E8
:100BF00003C02BF002C02AF001C029F000C028F089
:100C00004C0E436EF30E426E3A0E416E7B0E406EFA
:100C100033C047F032C046F031C045F030C044F038
:100C200033EC01F003C038F002C037F001C036F0F9
:100C300000C035F0D89203C047F002C046F001C0B2
:100C400045F000C044F02B0E4B6E9D0E4A6EDF0E39
:100C5000496E7E0E486EACEC01F003C02FF002C06E
:100C60002EF001C02DF000C02CF02FC043F02EC09C
:100C700042F02DC041F02CC040F033C047F032C0EC
:100C800046F031C045F030C044F033EC01F003C011
:100C900038F002C037F001C036F000C035F0D8920D
:100CA00003C047F002C046F001C045F000C044F068
:100CB0004B6A4A6A496A7F0E486EACEC01F003C089
:100CC0002FF002C02EF001C02DF000C02CF027C084
:100CD00043F026C042F025C041F024C040F02BC0B4
:100CE00047F02AC046F029C045F028C044F033EC54
:100CF00001F003C038F002C037F001C036F000C088
:100D000035F003C03CF002C03BF001C03AF000C037
:100D100039F02FC040F02EC03FF02DC03EF02CC067
:100D20003DF02FEC00F003C02BF002C02AF001C010
:100D300029F000C028F0366A200EE96E36C0EAFFBE
:100D40007E0EEF5C346E34AE12D0000ED880345478
:100D5000376A366E36BE370683DE00C02CF001508F
:100D6000800A2D6E02C02EF003C02FF00ED0376A1D
:100D700034C036F036BE370673DE03C02FF002C033
:100D80002EF001C02DF000C02CF02FC043F02EC07B
:100D900042F02DC041F02CC040F0180E476E720E8C
:100DA000466E310E456E7E0E446E33EC01F0D892E5
:100DB0002BC047F02AC046F029C045F028C044F0B7
:100DC00003C04BF002C04AF001C049F000C048F037
:100DD000ACEC01F003C02BF002C02AF001C029F0F6
:100DE00000C028F004D02B6A2A6A296A286A28C021
:100DF00000F029C001F02AC002F02BC003F012005D
:100E000023C043F022C042F021C041F020C040F096
:100E10003B0E476EAA0E466E380E456E7F0E446E30
:100E200033EC01F003C043F002C042F001C041F0D6
:100E300000C040F017EC01F001C030F0319023C049
:100E400027F022C026F021C025F020C024F023C0C6
:100E500043F022C042F021C041F020C040F0476A78
:100E6000466A456A446ADCEC00F005E33180306C88
:100E70002550800A256E2B6A2A6A296A286A336AF5
:100E8000280EE96E33C0EAFF7F0E3024EF6E27C0D4
:100E900043F026C042F025C041F024C040F03B0E94
:100EA000476EAA0E466E380E456E7F0E446E33ECCA
:100EB00001F003C035F002C034F001C033F000C0CF
:100EC00032F0376A30C036F036BE3706C9DDD88218
:100ED00035C047F034C046F033C045F032C044F06E
:100EE00003C04BF002C04AF001C049F000C048F016
:100EF000ACEC01F003C027F002C026F001C025F0E1
:100F000000C024F07C0E436E880E426E590E416E76
:100F1000720E406E27C047F026C046F025C045F04F
:100F200024C044F033EC01F003C035F002C034F0CB
:100F300001C033F000C032F0D89203C047F002C0C5
:100F400046F001C045F000C044F0E00E4B6E970E35
:100F50004A6E260E496E750E486EACEC01F003C069
:100F60002FF002C02EF001C02DF000C02CF02FC0D9
:100F700043F02EC042F02DC041F02CC040F027C0FD
:100F800047F026C046F025C045F024C044F033ECBD
:100F900001F003C035F002C034F001C033F000C0EE
:100FA00032F0D89203C047F002C046F001C045F0CD
:100FB00000C044F0C40E4B6E1D0E4A6E1E0E496EEC
:100FC000780E486EACEC01F003C02FF002C02EF09A
:100FD00001C02DF000C02CF02FC043F02EC042F015
:100FE0002DC041F02CC040F027C047F026C046F08D
:100FF00025C045F024C044F033EC01F003C035F0C7
:1010000002C034F001C033F000C032F0D89203C007
:1010100047F002C046F001C045F000C044F05E0E4B
:101020004B6E500E4A6E630E496E7A0E486EACECF3
:1010300001F003C02FF002C02EF001C02DF000C05F
:101040002CF02FC043F02EC042F02DC041F02CC038
:1010500040F027C047F026C046F025C045F024C028
:1010600044F033EC01F003C035F002C034F001C0AD
:1010700033F000C032F0D89203C047F002C046F00F
:1010800001C045F000C044F01A0E4B6EFE0E4A6ED1
:10109000750E496E7C0E486EACEC01F003C02FF06B
:1010A00002C02EF001C02DF000C02CF02FC043F084
:1010B0002EC042F02DC041F02CC040F027C047F0B8
:1010C00026C046F025C045F024C044F033EC01F0C2
:1010D00003C035F002C034F001C033F000C032F07C
:1010E000D89203C047F002C046F001C045F000C0EE
:1010F00044F0180E4B6E720E4A6E310E496E7E0E23
:10110000486EACEC01F003C02FF002C02EF001C01D
:101110002DF000C02CF027C043F026C042F025C0BF
:1011200041F024C040F02FC047F02EC046F02DC043
:1011300045F02CC044F033EC01F0D892476A466A7F
:10114000456A7F0E446E03C04BF002C04AF001C0F6
:1011500049F000C048F0ACEC01F02BC043F02AC0CD
:1011600042F029C041F028C040F003C047F002C05F
:1011700046F001C045F000C044F033EC01F003C07C
:101180002BF002C02AF001C029F000C028F031A0E5
:1011900017D03C6A3B6A3A6A7F0E396E2BC040F02A
:1011A0002AC03FF029C03EF028C03DF02FEC00F0EF
:1011B00003C02BF002C02AF001C029F000C028F0C3
:1011C00028C000F029C001F02AC002F02BC003F0B3
:1011D000120017C043F016C042F015C041F014C011
:1011E00040F0476A466A456A446ADCEC00F0D8A0E1
:1011F000CDD01BC01FF01AC01EF019C01DF018C0C2
:101200001CF0236A226A216A7F0E206E85EC04F0AE
:1012100003C01FF002C01EF001C01DF000C01CF092
:1012200003C043F002C042F001C041F000C040F0F2
:10123000476A466A456A446ADCEC00F0D8A4A6D046
:101240001BC01FF01AC01EF019C01DF018C01CF002
:10125000236A226A216A800E206E85EC04F003C0A6
:101260001FF002C01EF001C01DF000C01CF003C042
:1012700043F002C042F001C041F000C040F0476AB4
:10128000466A456A446ADCEC00F03FE114C01CF099
:101290001550800A1D6E16C01EF017C01FF017C033
:1012A00023F016C022F0216E14C020F054EC05F09B
:1012B00003C01FF002C01EF001C01DF000C01CF0F2
:1012C00003C043F002C042F001C041F000C040F052
:1012D0001BC047F01AC046F019C045F018C044F0D2
:1012E00033EC01F003C01FF002C01EF001C01DF07E
:1012F00000C01CF003C023F002C022F001C021F0A6
:1013000000C020F07DDDD1D040D014C01CF01550BD
:10131000800A1D6E16C01EF017C01FF017C023F004
:1013200016C022F0216E14C020F054EC05F003C06A
:101330001FF002C01EF001C01DF000C01CF003C071
:1013400043F002C042F001C041F000C040F01BC0B9
:1013500047F01AC046F019C045F018C044F033EC0D
:1013600001F003C01FF002C01EF001C01DF000C05C
:101370001CF003C023F002C022F001C021F000C025
:1013800020F03EDD800E011A90D08FD017C043F0C0
:1013900016C042F015C041F014C040F0476A466ADA
:1013A000456A446ADCEC00F02CE31BC01FF01AC055
:1013B0001EF019C01DF018C01CF0236A226A216AB1
:1013C0007F0E206E85EC04F003C01FF002C01EF0FB
:1013D00001C01DF000C01CF003C043F002C042F089
:1013E00001C041F000C040F0476A466A456A446A5D
:1013F000DCEC00F006E0006A016A026A036A55D07C
:1014000054D017C043F016C042F015C041F014C0CC
:1014100040F0476A466A456A446ADCEC00F010E135
:101420001BC043F01AC042F019C041F018C040F090
:10143000476A466A456A446ADCEC00F001E235E13D
:1014400017C023F016C022F015C021F014C020F000
:1014500054EC05F003C01FF002C01EF001C01DF0E7
:1014600000C01CF003C043F002C042F001C041F0D4
:1014700000C040F01BC047F01AC046F019C045F04C
:1014800018C044F033EC01F003C01FF002C01EF09E
:1014900001C01DF000C01CF003C023F002C022F008
:1014A00001C021F000C020F0ABDC0BEF0BF0016AB3
:1014B000026A006A036A135002E1125018E0100E2B
:1014C000146ED89010361136003603361350035C74
:1014D00002E11250005C07E31250005ED8A0030640
:1014E0001350035ED88001360236142EEAD712005C
:1014F000EA6A100EE96EEF500DE0020E016E006A0E
:10150000002EFED7012EFBD7970E006E002EFED7C1
:10151000EF2EF3D71200816A020E816ED890043448
:10152000026E0534036E025002EC00F00900F5CFA4
:1015300003F0836E070E106EDBDF816A010E816E91
:10154000D8900634026E0734036E025002EC00F0AD
:101550000900F5CF03F0836E070E106EC9DF32EF7E
:101560000BF0F86AD09E700ED36ED350056A046AF1
:10157000076A066AC150C00B0F09C16E070EB46E30
:10158000936A956A030EC26E0E0EC16E800EC06E17
:101590000F6A0E6A030EC26E096AC3CF08F00B6AA7
:1015A000C4CF0AF0106A085010240C6E09500A20AB
:1015B0000D6EC26A0DC045F00CC044F014EC00F092
:1015C00003C03CF002C03BF001C03AF000C039F06B
:1015D000660E406EAE0E3F6E3F0E3E6E8A0E3D6E44
:1015E0002FEC00F003C013F002C012F001C011F0A4
:1015F00000C010F003C017F002C016F001C015F0D3
:1016000000C014F0CA0E1B6E260E1A6E9B0E196EC9
:101610007F0E186EDED503C043F002C042F001C059
:1016200041F000C040F017EC01F002C00FF001C023
:101630000EF00FC011F00EC010F0136A0A0E126EF9
:1016400036DF02C005F001C004F00FC011F00EC07B
:1016500010F0136A0A0E126E2ADF00C006F003C0F3
:0816600007F059D797D70300EA
:020000040030CA
:0E0000003FC9381E0087A1000FC00FE00F405F
:00000001FF
;PIC18F4550
;CRC=5993  CREATED="13-Feb-22 03:01"
